010000002000139000TOMATE KG                                         000002000013911000000000000000000000000000   
010000003000069000BATATINHA BINGE KG                                000003000006911000000000000000000000000000   
010000004000069000CEBOLA KG                                         000004000006911000000000000000000000000000   
010000005000100000LARANJA PERA KG                                   000005000010011000000000000000000000000000   
010000006000099000MANDIOCA KG                                       000006000009911000000000000000000000000000   
010000007000095000BANANA NANICA KG                                  000007000009511000000000000000000000000000   
010000008000199000BANANA MACA KG                                    000008000019911000000000000000000000000000   
010000009000149000BANANAO KG                                        000009000014911000000000000000000000000000   
010000010000069000BETERRABA KG                                      000010000006911000000000000000000000000000   
010000011000069000REPOLHO VERDE KG                                  000011000006911000000000000000000000000000   
010000012000129000REPOLHO ROXO KG                                   000012000012911000000000000000000000000000   
010000013000299000PIMENTAO KG                                       000013000029911000000000000000000000000000   
010000014000149000CENOURA KG                                        000014000014911000000000000000000000000000   
010000015000100000PEPINO KG                                         000015000010011000000000000000000000000000   
010000016000100000CHUCHU KG                                         000016000010011000000000000000000000000000   
010000017000299000LIMAO KG                                          000017000029911000000000000000000000000000   
010000019000199000COSTELA FINA KG                                   000019000019911000000000000000000000000000   
010000020000229000COSTELA GROSSA KG                                 000020000022911000000000000000000000000000   
010000021000699000COXAO MOLE KG                                     000021000069911000000000000000000000000000   
010000022000738000ALCATRA KG                                        000022000073811000000000000000000000000000   
010000023000739000CONTRA FILE KG                                    000023000073911000000000000000000000000000   
010000024000630000PATINHO KG                                        000024000063011000000000000000000000000000   
010000025000620000COXAO DURO KG                                     000025000062011000000000000000000000000000   
010000026000538000PALETA GROSSA KG                                  000026000053811000000000000000000000000000   
010000027000498000LOMBO KG                                          000027000049811000000000000000000000000000   
010000028000399000CARNE SUINA DIANTEIRA                             000028000039911000000000000000000000000000   
010000029000388000MUSCOLO KG                                        000029000038811000000000000000000000000000   
010000030000465000PONTA PEITO                                       000030000046511000000000000000000000000000   
010000031000539000FRAUDINHA KG                                      000031000053911000000000000000000000000000   
010000032000199000CARNE 2 C/OSSO KG                                 000032000019911000000000000000000000000000   
010000033000399000BISTECA 7 KG                                      000033000039911000000000000000000000000000   
010000034000450000CARNE 1 COM OSSO KG                               000034000045011000000000000000000000000000   
010000035000599000LINGUICA FRANGO KG                                000035000059911000000000000000000000000000   
010000036000299000LINGUICA MISTA KG                                 000036000029911000000000000000000000000000   
010000037000399000LINGUICA WILSON KG                                000037000039911000000000000000000000000000   
010000038000699000LEITAO CAIPIRA KG                                 000038000069911000000000000000000000000000   
010000039000699000LINGUICA FINA PORCO KG                            000039000069911000000000000000000000000000   
010000040000350000PEITO FRANGO KG                                   000040000035011000000000000000000000000000   
010000041000350000ASA FRANGO KG                                     000041000035011000000000000000000000000000   
010000042000350000COXA/SOB COXA KG                                  000042000035011000000000000000000000000000   
010000043000499000SADIA COXINHA ASA KG                              000043000049911000000000000000000000000000   
010000044000298000FRANGO DUNATURALI KG                              000044000029811000000000000000000000000000   
010000045000229000FRANGO BOM KG                                     000045000022911000000000000000000000000000   
010000046000398000FRANGO PASSARINHO TEMPERADO KG                    000046000039811000000000000000000000000000   
010000047000299000PAO FRANCES KG                                    000047000029911000000000000000000000000000   
010000048000495000APRESUNTADO SADILAR KG                            000048000049511000000000000000000000000000   
010000049001150000MUSSARELA KG                                      000049000115011000000000000000000000000000   
010000050000785000BACON SADIA KG                                    000050000078511000000000000000000000000000   
010000051000299000MORTADELA SADILAR KG                              000051000029911000000000000000000000000000   
010000052000348000SALSICHA REZENDE KG                               000052000034811000000000000000000000000000   
010000053000298000SALSICHA SADIA KG                                 000053000029811000000000000000000000000000   
010000054000995000PREZUNTO COZIDO SADIA KG                          000054000099511000000000000000000000000000   
010000055000790000MORTADELA BOLONHA KG                              000055000079011000000000000000000000000000   
010000056000598000SADIA CALABREZA KG                                000056000059811000000000000000000000000000   
010000057000499000RETALHO MUSS=PRES=MORT KG                         000057000049911000000000000000000000000000   
010000058000499000RETALHO MUSS=PRES=MORT.KG                         000058000049911000000000000000000000000000   
010000059000499000RETALHO MUSS=PRES=MORT KG.                        000059000049911000000000000000000000000000   
010000060000699000COSTELINHA PORCO KG                               000060000069911000000000000000000000000000   
010000061000699000BISTECA SUINA KG                                  000061000069911000000000000000000000000000   
010000062000499000PERNIL PORCO KG                                   000062000049911000000000000000000000000000   
010000063000350000PICADAO KG                                        000063000035011000000000000000000000000000   
010000065000399000PONTA COSTELA PORCO                               000065000039911000000000000000000000000000   
010000066000690000BISTECA BOI KG                                    000066000069011000000000000000000000000000   
010000067000498000ALMONDEGA KG                                      000067000049811000000000000000000000000000   
010000068000238000CORACAO BOI KG                                    000068000023811000000000000000000000000000   
010000069000150000RIM DE BOI KG                                     000069000015011000000000000000000000000000   
010000070000338000FIGADO BOI KG                                     000070000033811000000000000000000000000000   
010000071000188000BUCHO BOI KG                                      000071000018811000000000000000000000000000   
010000072000188000MOCOTO BOI KG                                     000072000018811000000000000000000000000000   
010000073000150000LINGUA BOI KG                                     000073000015011000000000000000000000000000   
010000074000588000RABADA BOI KG                                     000074000058811000000000000000000000000000   
010000075000078000DORSO FRANGO KG                                   000075000007811000000000000000000000000000   
010000076000585000CARNE SECA KG                                     000076000058511000000000000000000000000000   
010000077000079000OSSINHO KG                                        000077000007911000000000000000000000000000   
010000078000849000FILE MIGNOM KG                                    000078000084911000000000000000000000000000   
010000079000999000PICANHA KG                                        000079000099911000000000000000000000000000   
010000080000199000TRIPA BOI KG                                      000080000019911000000000000000000000000000   
010000081000150000FIGADO FRANGO KG                                  000081000015011000000000000000000000000000   
010000082000399000LINGUICA SADIA KG                                 000082000039911000000000000000000000000000   
010000083000990000PERU SADIA KG                                     000083000099011000000000000000000000000000   
010000084000199000CASTANHA PARA                                     000084000019911000000000000000000000000000   
010000085000699000BIFE ROLE KG                                      000085000069911000000000000000000000000000   
010000086000695000PERTENCE FEIJOADA KG                              000086000069511000000000000000000000000000   
010000087000799000UVAS PASSAS KG                                    000087000079911000000000000000000000000000   
010000088000399000TORRADA KG                                        000088000039911000000000000000000000000000   
010000089002495000BISCOITO CASEIRO KG                               000089000249511000000000000000000000000000   
010000090002100000BISC UGA UGA KG                                   000090000210011000000000000000000000000000   
010000091000550000BIFE BATIDO KG                                    000091000055011000000000000000000000000000   
010000092000995000PAO DE QUEIJO KG                                  000092000099511000000000000000000000000000   
010000093000599000PESSEGO KG                                        000093000059911000000000000000000000000000   
010000094000599000NECTARINA KG                                      000094000059911000000000000000000000000000   
010000095000299000MACA KATYUM KG                                    000095000029911000000000000000000000000000   
010000096000299000PE ORELHA PELE SUINO                              000096000029911000000000000000000000000000   
010000097000790000RABO SUINO SALGADO KG                             000097000079011000000000000000000000000000   
010000098000499000PAO ROSCA/PINGO COCO                              000098000049911000000000000000000000000000   
010000099000099000CARA KG                                           000099000009911000000000000000000000000000   
010000100000169000POCAN KG                                          000100000016911000000000000000000000000000   
010000101000059000MELANCIA GOIANA KG                                000101000005911000000000000000000000000000   
010000102000169000MIXIRICA KG                                       000102000016911000000000000000000000000000   
010000103000950000GENJIBRE KG                                       000103000095011000000000000000000000000000   
010000104001650000BOLO ANIVERSARIO KG                               000104000165011000000000000000000000000000   
010000105000590000PEIXE TAMBAQUI KG                                 000105000059011000000000000000000000000000   
010000106000139000ABOBORA CABOTIA KG                                000106000013911000000000000000000000000000   
010000107000129000ABOBRINHA VERDE KG                                000107000012911000000000000000000000000000   
010000108000139000ABOBORA PAULISTA KG                               000108000013911000000000000000000000000000   
010000109000399000COCO SECO KG                                      000109000039911000000000000000000000000000   
010000110000198000ABACATE KG                                        000110000019811000000000000000000000000000   
010000111000299000VAGEM KG                                          000111000029911000000000000000000000000000   
010000112000298000QUIABO KG                                         000112000029811000000000000000000000000000   
010000113000298000JILO KG                                           000113000029811000000000000000000000000000   
010000114000299000MAXIXE KG                                         000114000029911000000000000000000000000000   
010000115000398000COUVE FLOR KG                                     000115000039811000000000000000000000000000   
010000116000599000UVA RUBI KG                                       000116000059911000000000000000000000000000   
010000117000599000UVA NIAGARA KG                                    000117000059911000000000000000000000000000   
010000118000198000MAMAO PAPAIA KG                                   000118000019811000000000000000000000000000   
010000119000148000MAMAO FORMOZA KG                                  000119000014811000000000000000000000000000   
010000120000499000PONTA COST SALGADA PORCO KG                       000120000049911000000000000000000000000000   
010000121000699000PERA KG                                           000121000069911000000000000000000000000000   
010000122000348000MILHO VERDE KG                                    000122000034811000000000000000000000000000   
010000123000247000TOMATE JAPONES KG                                 000123000024711000000000000000000000000000   
010000124000100000BERINGELA KG                                      000124000010011000000000000000000000000000   
010000126000248000FARINHA ARTESANAL KG                              000126000024811000000000000000000000000000   
010000127000199000FARINHA INDUSTRIAL KG                             000127000019911000000000000000000000000000   
010000128000099000MANGA ADAM KG                                     000128000009911000000000000000000000000000   
010000129000299000MARACUJA KG                                       000129000029911000000000000000000000000000   
010000130001300000VENTRECHA SEM ESPINHA                             000130000130011000000000000000000000000000   
010000131001150000LAMBARI D FISH KG                                 000131000115011000000000000000000000000000   
010000132001450000VENTRECHA EMPANADA D FISH KG                      000132000145011000000000000000000000000000   
010000133000588000PEIXE INTEIRO D FISH KG                           000133000058811000000000000000000000000000   
010000134000698000ENGREDIENTE FEIJOADA                              000134000069811000000000000000000000000000   
010000135000100000BATATA DOCE KG                                    000135000010011000000000000000000000000000   
010000136000199000BANANA PRATA KG                                   000136000019911000000000000000000000000000   
010000137000050000ABOBORA CAIPIRA KG                                000137000005011000000000000000000000000000   
010000138001500000ALHO KG                                           000138000150011000000000000000000000000000   
010000139000550000LUKATAM QUEIJO KG                                 000139000055011000000000000000000000000000   
010000141000299000CAQUI KG                                          000141000029911000000000000000000000000000   
010000142000139000PEPINO JAPONES KG                                 000142000013911000000000000000000000000000   
010000143000350000PINHAO TROPICAL                                   000143000035011000000000000000000000000000   
010000150000375000MACA KG                                           000150000037511000000000000000000000000000   
010000151000198000SUAM DE PORCO KG                                  000151000019811000000000000000000000000000   
010000155000599000AVE FESTA GOURMET KG                              000155000059911000000000000000000000000000   
010000156000845000CHARQUE PANTANEIRO KG                             000156000084511000000000000000000000000000   
010000159000199000CASTANHA DO PARA PC                               000159000019911000000000000000000000000000   
010000160000398000TOUCINHO SALGADO KG                               000160000039811000000000000000000000000000   
010000161000298000FRANGO SADIA KG                                   000161000029811000000000000000000000000000   
010000165000990000TORRESMO REZENDE KG                               000165000099011000000000000000000000000000   
010000166000339000CARNE MOIDA KG                                    000166000033911000000000000000000000000000   
010000170000150000RACAO CACHORRO MARROM KG                          000170000015011000000000000000000000000000   
010000171000175000RACAO CACHORRO VERMELHA KG                        000171000017511000000000000000000000000000   
010000172000299000RACAO GATO KG                                     000172000029911000000000000000000000000000   
010000175000599000FORTALEZA BANHA 2LT                               000175000059911000000000000000000000000000   
010000176000598000MORTADELA CELOFANE KG                             000176000059811000000000000000000000000000   
010000177000598000SALSICHAO TEBOLAR  KG                             000177000059811000000000000000000000000000   
010000178000679000TORRESMO FORTALEZA KG                             000178000067911000000000000000000000000000   
010000179000998000BACON FORTALEZA KG                                000179000099811000000000000000000000000000   
010000180000979000SALAMINHO SUINO KG                                000180000097911000000000000000000000000000   
010000181000598000SALSICHAO VERMELHO KG                             000181000059811000000000000000000000000000   
010000182000598000COSTELA SUINA C/ PELE KG                          000182000059811000000000000000000000000000   
010000183000599000ING. P/ FEIJOADA KG                               000183000059911000000000000000000000000000   
010000184000399000PALETA SUINA C/ PELE KG                           000184000039911000000000000000000000000000   
010000185000198000MORGOTE KG                                        000185000019811000000000000000000000000000   
010000186000470000LINGUICA DEFUMADA KG                              000186000047011000000000000000000000000000   
010000190000495000PEIXE TAMBACU KG                                  000190000049511000000000000000000000000000   
010000191000750000ALCATRA COMPLETRA KG                              000191000075011000000000000000000000000000   
