01030000002000139000TOMATE KG                                         
01030000003000069000BATATINHA BINGE KG                                
01030000004000069000CEBOLA KG                                         
01030000005000100000LARANJA PERA KG                                   
01030000006000099000MANDIOCA KG                                       
01030000007000095000BANANA NANICA KG                                  
01030000008000199000BANANA MACA KG                                    
01030000009000149000BANANAO KG                                        
01030000010000069000BETERRABA KG                                      
01030000011000069000REPOLHO VERDE KG                                  
01030000012000129000REPOLHO ROXO KG                                   
01030000013000299000PIMENTAO KG                                       
01030000014000149000CENOURA KG                                        
01030000015000100000PEPINO KG                                         
01030000016000100000CHUCHU KG                                         
01030000017000299000LIMAO KG                                          
01030000019000199000COSTELA FINA KG                                   
01030000020000229000COSTELA GROSSA KG                                 
01030000021000699000COXAO MOLE KG                                     
01030000022000738000ALCATRA KG                                        
01030000023000739000CONTRA FILE KG                                    
01030000024000630000PATINHO KG                                        
01030000025000620000COXAO DURO KG                                     
01030000026000538000PALETA GROSSA KG                                  
01030000027000498000LOMBO KG                                          
01030000028000399000CARNE SUINA DIANTEIRA                             
01030000029000388000MUSCOLO KG                                        
01030000030000465000PONTA PEITO                                       
01030000031000539000FRAUDINHA KG                                      
01030000032000199000CARNE 2 C/OSSO KG                                 
01030000033000399000BISTECA 7 KG                                      
01030000034000450000CARNE 1 COM OSSO KG                               
01030000035000599000LINGUICA FRANGO KG                                
01030000036000299000LINGUICA MISTA KG                                 
01030000037000399000LINGUICA WILSON KG                                
01030000038000699000LEITAO CAIPIRA KG                                 
01030000039000699000LINGUICA FINA PORCO KG                            
01030000040000350000PEITO FRANGO KG                                   
01030000041000350000ASA FRANGO KG                                     
01030000042000350000COXA/SOB COXA KG                                  
01030000043000499000SADIA COXINHA ASA KG                              
01030000044000298000FRANGO DUNATURALI KG                              
01030000045000229000FRANGO BOM KG                                     
01030000046000398000FRANGO PASSARINHO TEMPERADO KG                    
01030000047000299000PAO FRANCES KG                                    
01030000048000495000APRESUNTADO SADILAR KG                            
01030000049001150000MUSSARELA KG                                      
01030000050000785000BACON SADIA KG                                    
01030000051000299000MORTADELA SADILAR KG                              
01030000052000348000SALSICHA REZENDE KG                               
01030000053000298000SALSICHA SADIA KG                                 
01030000054000995000PREZUNTO COZIDO SADIA KG                          
01030000055000790000MORTADELA BOLONHA KG                              
01030000056000598000SADIA CALABREZA KG                                
01030000057000499000RETALHO MUSS=PRES=MORT KG                         
01030000058000499000RETALHO MUSS=PRES=MORT.KG                         
01030000059000499000RETALHO MUSS=PRES=MORT KG.                        
01030000060000699000COSTELINHA PORCO KG                               
01030000061000699000BISTECA SUINA KG                                  
01030000062000499000PERNIL PORCO KG                                   
01030000063000350000PICADAO KG                                        
01030000065000399000PONTA COSTELA PORCO                               
01030000066000690000BISTECA BOI KG                                    
01030000067000498000ALMONDEGA KG                                      
01030000068000238000CORACAO BOI KG                                    
01030000069000150000RIM DE BOI KG                                     
01030000070000338000FIGADO BOI KG                                     
01030000071000188000BUCHO BOI KG                                      
01030000072000188000MOCOTO BOI KG                                     
01030000073000150000LINGUA BOI KG                                     
01030000074000588000RABADA BOI KG                                     
01030000075000078000DORSO FRANGO KG                                   
01030000076000585000CARNE SECA KG                                     
01030000077000079000OSSINHO KG                                        
01030000078000849000FILE MIGNOM KG                                    
01030000079000999000PICANHA KG                                        
01030000080000199000TRIPA BOI KG                                      
01030000081000150000FIGADO FRANGO KG                                  
01030000082000399000LINGUICA SADIA KG                                 
01030000083000990000PERU SADIA KG                                     
01030000084000199000CASTANHA PARA                                     
01030000085000699000BIFE ROLE KG                                      
01030000086000695000PERTENCE FEIJOADA KG                              
01030000087000799000UVAS PASSAS KG                                    
01030000088000399000TORRADA KG                                        
01030000089002495000BISCOITO CASEIRO KG                               
01030000090002100000BISC UGA UGA KG                                   
01030000091000550000BIFE BATIDO KG                                    
01030000092000995000PAO DE QUEIJO KG                                  
01030000093000599000PESSEGO KG                                        
01030000094000599000NECTARINA KG                                      
01030000095000299000MACA KATYUM KG                                    
01030000096000299000PE ORELHA PELE SUINO                              
01030000097000790000RABO SUINO SALGADO KG                             
01030000098000499000PAO ROSCA/PINGO COCO                              
01030000099000099000CARA KG                                           
01030000100000169000POCAN KG                                          
01030000101000059000MELANCIA GOIANA KG                                
01030000102000169000MIXIRICA KG                                       
01030000103000950000GENJIBRE KG                                       
01030000104001650000BOLO ANIVERSARIO KG                               
01030000105000590000PEIXE TAMBAQUI KG                                 
01030000106000139000ABOBORA CABOTIA KG                                
01030000107000129000ABOBRINHA VERDE KG                                
01030000108000139000ABOBORA PAULISTA KG                               
01030000109000399000COCO SECO KG                                      
01030000110000198000ABACATE KG                                        
01030000111000299000VAGEM KG                                          
01030000112000298000QUIABO KG                                         
01030000113000298000JILO KG                                           
01030000114000299000MAXIXE KG                                         
01030000115000398000COUVE FLOR KG                                     
01030000116000599000UVA RUBI KG                                       
01030000117000599000UVA NIAGARA KG                                    
01030000118000198000MAMAO PAPAIA KG                                   
01030000119000148000MAMAO FORMOZA KG                                  
01030000120000499000PONTA COST SALGADA PORCO KG                       
01030000121000699000PERA KG                                           
01030000122000348000MILHO VERDE KG                                    
01030000123000247000TOMATE JAPONES KG                                 
01030000124000100000BERINGELA KG                                      
01030000126000248000FARINHA ARTESANAL KG                              
01030000127000199000FARINHA INDUSTRIAL KG                             
01030000128000099000MANGA ADAM KG                                     
01030000129000299000MARACUJA KG                                       
01030000130001300000VENTRECHA SEM ESPINHA                             
01030000131001150000LAMBARI D FISH KG                                 
01030000132001450000VENTRECHA EMPANADA D FISH KG                      
01030000133000588000PEIXE INTEIRO D FISH KG                           
01030000134000698000ENGREDIENTE FEIJOADA                              
01030000135000100000BATATA DOCE KG                                    
01030000136000199000BANANA PRATA KG                                   
01030000137000050000ABOBORA CAIPIRA KG                                
01030000138001500000ALHO KG                                           
01030000139000550000LUKATAM QUEIJO KG                                 
01030000141000299000CAQUI KG                                          
01030000142000139000PEPINO JAPONES KG                                 
01030000143000350000PINHAO TROPICAL                                   
01030000150000375000MACA KG                                           
01030000151000198000SUAM DE PORCO KG                                  
01030000155000599000AVE FESTA GOURMET KG                              
01030000156000845000CHARQUE PANTANEIRO KG                             
01030000159000199000CASTANHA DO PARA PC                               
01030000160000398000TOUCINHO SALGADO KG                               
01030000161000298000FRANGO SADIA KG                                   
01030000165000990000TORRESMO REZENDE KG                               
01030000166000339000CARNE MOIDA KG                                    
01030000170000150000RACAO CACHORRO MARROM KG                          
01030000171000175000RACAO CACHORRO VERMELHA KG                        
01030000172000299000RACAO GATO KG                                     
01030000175000599000FORTALEZA BANHA 2LT                               
01030000176000598000MORTADELA CELOFANE KG                             
01030000177000598000SALSICHAO TEBOLAR  KG                             
01030000178000679000TORRESMO FORTALEZA KG                             
01030000179000998000BACON FORTALEZA KG                                
01030000180000979000SALAMINHO SUINO KG                                
01030000181000598000SALSICHAO VERMELHO KG                             
01030000182000598000COSTELA SUINA C/ PELE KG                          
01030000183000599000ING. P/ FEIJOADA KG                               
01030000184000399000PALETA SUINA C/ PELE KG                           
01030000185000198000MORGOTE KG                                        
01030000186000470000LINGUICA DEFUMADA KG                              
01030000190000495000PEIXE TAMBACU KG                                  
01030000191000750000ALCATRA COMPLETRA KG                              
